:020000040800F2
:100000000000022071190008851800088B180008EC
:1000100091180008971800089D18000800000000BB
:1000200000000000000000000000000091590008DE
:10003000A318000800000000E15B0008B1180008E8
:10004000C1190008C1190008C1190008C119000828
:10005000C1190008C1190008C1190008C119000818
:10006000C1190008C1190008C1190008C119000808
:10007000C1190008C1190008C1190008C1190008F8
:10008000C1190008C1190008C1190008C1190008E8
:10009000C1190008C1190008C1190008C1190008D8
:1000A000C1190008C1190008C1190008C1190008C8
:1000B000C1190008C1190008C1190008C1190008B8
:1000C000C1190008C1190008C1190008C1190008A8
:1000D000C1190008C1190008C1190008CD1800088D
:1000E000C1190008C1190008C1190008C119000888
:1000F000C1190008C1190008C1190008C119000878
:10010000C1190008C1190008C1190008C119000867
:10011000C1190008C1190008C1190008C119000857
:10012000C1190008C1190008C1190008C119000847
:10013000C1190008C1190008C1190008C119000837
:10014000C1190008C1190008C1190008C119000827
:10015000C1190008C1190008C1190008C119000817
:10016000C1190008C1190008C1190008C119000807
:10017000C1190008C1190008C119000800000000D9
:08018000C1190008C1190008B3
:1001900010B5054C237833B9044B13B10448AFF3C1
:1001A00000800123237010BD7400002000000000B7
:1001B000FC69000808B5034B1BB103490348AFF3C2
:1001C000008008BD0000000078000020FC690008E5
:1001D00001F0FF01102A2BDB10F0070F08D010F8F8
:1001E000013B013A8B422DD010F0070F42B3F6D1FC
:1001F000F0B441EA012141EA014122F007047FF015
:1002000000070023F0E80256083C85EA010586EA6B
:10021000010685FA47F5A3FA87F586FA47F6A5FAA7
:1002200087F68EB9EED1F0BC01F0FF0102F00702B3
:1002300032B110F8013B013A83EA010313B1F8D15E
:100240000020704701387047002D06BF354603383F
:10025000073815F0010F07D1013015F4807F02BF78
:10026000013015F4C03F0130F0BC0138704700BFC9
:1002700053B94AB9002908BF00281CBF4FF0FF310D
:100280004FF0FF3000F074B9ADF1080C6DE904CE09
:1002900000F006F8DDF804E0DDE9022304B0704761
:1002A0002DE9F047089D04468E46002B4DD18A4229
:1002B000944669D9B2FA82F252B101FA02F3C2F15C
:1002C000200120FA01F10CFA02FC41EA030E9440ED
:1002D0004FEA1C48210CBEFBF8F61FFA8CF708FB0E
:1002E00016E341EA034306FB07F199420AD91CEBE6
:1002F000030306F1FF3080F01F81994240F21C8118
:10030000023E63445B1AA4B2B3FBF8F008FB10335F
:1003100044EA034400FB07F7A7420AD91CEB040494
:1003200000F1FF3380F00A81A74240F20781644464
:10033000023840EA0640E41B00261DB1D4400023E9
:10034000C5E900433146BDE8F0878B4209D9002D4D
:1003500000F0EF800026C5E9000130463146BDE8D7
:10036000F087B3FA83F6002E4AD18B4202D3824241
:1003700000F2F980841A61EB030301209E46002DF0
:10038000E0D0C5E9004EDDE702B9FFDEB2FA82F245
:10039000002A40F09280A1EB0C014FEA1C471FFAA3
:1003A0008CFE0126200CB1FBF7F307FB131140EA8A
:1003B00001410EFB03F0884208D91CEB010103F157
:1003C000FF3802D2884200F2CB804346091AA4B219
:1003D000B1FBF7F007FB101144EA01440EFB00FEED
:1003E000A64508D91CEB040400F1FF3102D2A64552
:1003F00000F2BB800846A4EB0E0440EA03409CE7F1
:10040000C6F12007B34022FA07FC4CEA030C20FA9D
:1004100007F401FA06F31C43F9404FEA1C4900FABD
:1004200006F3B1FBF9F8200C1FFA8CFE09FB18113A
:1004300040EA014108FB0EF0884202FA06F20BD9AD
:100440001CEB010108F1FF3A80F08880884240F2FD
:100450008580A8F102086144091AA4B2B1FBF9F041
:1004600009FB101144EA014100FB0EFE8E4508D93C
:100470001CEB010100F1FF346CD28E456AD90238C1
:10048000614440EA0840A0FB0294A1EB0E01A142A6
:10049000C846A64656D353D05DB1B3EB080261EB14
:1004A0000E0101FA07F722FA06F3F1401F43C5E9EE
:1004B000007100263146BDE8F087C2F12003D84024
:1004C0000CFA02FC21FA03F3914001434FEA1C4766
:1004D0001FFA8CFEB3FBF7F007FB10360B0C43EA58
:1004E000064300FB0EF69E4204FA02F408D91CEB08
:1004F000030300F1FF382FD29E422DD90238634406
:100500009B1B89B2B3FBF7F607FB163341EA0341A5
:1005100006FB0EF38B4208D91CEB010106F1FF38F4
:1005200016D28B4214D9023E6144C91A46EA0046EB
:1005300038E72E46284605E70646E3E61846F8E67D
:100540004B45A9D2B9EB020864EB0C0E0138A3E7C6
:100550004646EAE7204694E74046D1E7D0467BE7A7
:10056000023B614432E7304609E76444023842E71F
:10057000704700BF80B485B000AFF860B9607A60A2
:10058000FB68074A1A60BB68064A1A607B688022CB
:100590001A6000BF1437BD465DF8047B704700BF8A
:1005A00090000020E4000020B0B5A4B000AF01F03E
:1005B00009FA00F08BF800F003FB00F02BFA00F0D2
:1005C00081F900F0D3F900F0DFF800F0CFFA00F085
:1005D0001DFF0A223149324803F069FB314B07F114
:1005E00074041D460FCD0FC495E8070084E807008A
:1005F00007F174030021184604F011FB03462A4A50
:1006000013602A4B07F158041D460FCD0FC495E81F
:10061000070084E8070007F158030021184604F09A
:10062000FEFA0346224A1360224B07F13C041D46A2
:100630000FCD0FC495E8070084E8070007F13C03DD
:100640000021184604F0EBFA03461B4A13601B4BCB
:1006500007F120041D460FCD0FC495E8070084E87C
:10066000070007F120030021184604F0D8FA0346DA
:10067000134A1360134B3C1D1D460FCD0FC495E864
:10068000070084E807003B1D0021184604F0C7FA64
:1006900003460D4A136004F0BBFAFEE75C04002039
:1006A00004040020586A000848040020746A000806
:1006B0004C040020906A000850040020AC6A000836
:1006C00054040020C86A00085804002080B594B083
:1006D00000AF07F1200330220021184605F026FD67
:1006E00007F10C0300221A605A609A60DA601A61FE
:1006F0000023BB60224B1B6C214A43F080531364E0
:100700001F4B1B6C03F08053BB60BB6800237B60F6
:100710001C4B1B681B4A43F480431360194B1B6836
:1007200003F480437B607B6802233B620123FB620E
:1007300010233B630023BB6307F12003184601F03D
:1007400073FD0346002B01D000F0B4FC0F23FB60C7
:1007500000233B6100237B610023BB610023FB611D
:1007600007F10C030021184601F0D6FF0346002BC9
:1007700001D000F09FFC00BF5037BD4680BD00BFD8
:10078000003802400070004080B596B000AF07F11D
:10079000480300221A605A609A60DA6007F1400349
:1007A00000221A605A6007F1240300221A605A607E
:1007B0009A60DA601A615A619A613B1D2022002119
:1007C000184605F0B3FC3D4B3D4A1A603B4BA02256
:1007D0005A603A4B00229A60384B4FF47A72DA60D2
:1007E000364B00221A61354B00225A61334B80226E
:1007F0009A61324802F070F90346002B01D000F0F4
:1008000059FC4FF48053BB6407F1480319462B4849
:1008100002F0C8FC0346002B01D000F04BFC274837
:1008200002F0A9F90346002B01D000F043FC00239D
:100830003B6400237B6407F1400319461F4803F023
:1008400089F80346002B01D000F034FC60237B6262
:100850000023BB620023FB6200237B630023BB6396
:100860000023FB6307F124030C221946134802F00E
:10087000D7FB0346002B01D000F01CFC00237B605B
:100880000023BB600023FB6000233B6100237B61EE
:100890004FF40053BB6100233B623B1D19460748E0
:1008A00003F0D4F80346002B01D000F003FC03480A
:1008B00000F036FF00BF5837BD4680BDE40200207F
:1008C0000000014080B58CB000AF07F10C0324227A
:1008D0000021184605F02AFC3B1D00221A605A60D0
:1008E000214B4FF080421A601F4B00225A601E4B72
:1008F00000229A601C4B4FF0FF32DA601A4B002244
:100900001A61194B00229A610323FB6000233B61AB
:1009100001237B610023BB610A23FB6100233B624F
:1009200001237B620023BB620A23FB6207F10C03F5
:1009300019460D4802F040FA0346002B01D000F0A2
:10094000B9FB00237B600023BB603B1D19460648B2
:1009500003F000F80346002B01D000F0ABFB00BF12
:100960003037BD4680BD00BF2C03002080B58CB061
:1009700000AF07F10C0324220021184605F0D6FB36
:100980003B1D00221A605A60204B214A1A601F4BFF
:1009900000225A601D4B00229A601C4B4FF6FF72DA
:1009A000DA601A4B00221A61184B00229A61032365
:1009B000FB6000233B6101237B610023BB610023BB
:1009C000FB6100233B6201237B620023BB620023A7
:1009D000FB6207F10C0319460C4802F0EDF90346DF
:1009E000002B01D000F066FB00237B600023BB607E
:1009F0003B1D1946054802F0ADFF0346002B01D010
:100A000000F058FB00BF3037BD4680BD74030020A6
:100A10000004004080B596B000AF07F14803002203
:100A20001A605A609A60DA6007F1400300221A6087
:100A30005A6007F1240300221A605A609A60DA6053
:100A40001A615A619A613B1D20220021184605F067
:100A50006DFB444B444A1A60424B00225A60414BA2
:100A600000229A603F4B41F61F42DA603D4B002264
:100A70001A613C4B00225A613A4B00229A61394874
:100A800002F02AF80346002B01D000F013FB4FF4CC
:100A90008053BB6407F148031946324802F082FBD9
:100AA0000346002B01D000F005FB2E4802F063F84E
:100AB0000346002B01D000F0FDFA00233B64002325
:100AC0007B6407F140031946264802F043FF0346C2
:100AD000002B01D000F0EEFA60237B620023BB62A2
:100AE0000023FB6200233B6300237B630023BB6383
:100AF0000023FB6307F1240300221946194802F082
:100B00008FFA0346002B01D000F0D4FA07F124033A
:100B100004221946134802F083FA0346002B01D041
:100B200000F0C8FA00237B600023BB600023FB6059
:100B300000233B6100237B614FF40053BB61002322
:100B40003B623B1D1946074802F080FF0346002B1D
:100B500001D000F0AFFA034800F0E2FD00BF5837C3
:100B6000BD4680BDBC0300200004014080B500AF3D
:100B7000114B124A1A60104B4FF4E1325A600E4B7F
:100B800000229A600C4B0022DA600B4B00221A61A3
:100B9000094B0C225A61084B00229A61064B002235
:100BA000DA61054802F0A4FF0346002B01D000F0F3
:100BB00081FA00BF80BD00BF04040020004800404F
:100BC00080B58AB000AF07F1140300221A605A60A2
:100BD0009A60DA601A6100233B61314B1B6B304A2B
:100BE00043F0100313632E4B1B6B03F010033B61A8
:100BF0003B690023FB602A4B1B6B294A43F001032E
:100C00001363274B1B6B03F00103FB60FB6800239E
:100C1000BB60234B1B6B224A43F004031363204B3E
:100C20001B6B03F00403BB60BB6800237B601C4BA1
:100C30001B6B1B4A43F002031363194B1B6B03F03E
:100C400002037B607B6800224FF4BC61154801F011
:100C50008FFA00223C21144801F08AFA4FF4BC6359
:100C60007B610123BB610023FB6100233B6207F131
:100C7000140319460B4801F0DFF83C237B61012384
:100C8000BB610023FB6102233B6207F11403194699
:100C9000054801F0D1F800BF2837BD4680BD00BF30
:100CA00000380240001002400000024080B582B0CF
:100CB00000AF78604FF6FF730A220449044802F03F
:100CC00064FF00BF0837BD4680BD00BF5C04002044
:100CD0000404002080B584B000AF78604123FB732A
:100CE00007F10F014FF6FF7301220B4802F04DFF91
:100CF000FB7B592B04D8FB7B0133DBB2FB7301E098
:100D00004123FB734FF48061044801F04AFA41F239
:100D1000883003F0D0FFE3E7040400200010024015
:100D200090B589B000AF7860104B07F10C040FCB81
:100D300007C4237007F1190300221A60C3F80320C7
:100D400007F10C030A4A0B49184605F0F7F907F1B9
:100D50000C031A460A210A2000F026FB00F0B0F925
:100D60004FF47A7003F0A7FFEAE700BFE86A0008D3
:100D70005C040020E46A000880B400AF064B1B68E6
:100D800000225A63044B1B6800229A6300BFBD46D1
:100D90005DF8047B704700BFBC03002080B500AF46
:100DA00001220821104801F0E3F9002204210E4835
:100DB00001F0DEF9012210210B4801F0D9F90022DF
:100DC0002021094801F0D4F9084B1B6840F6C412F1
:100DD0005A63064B1B6840F6C4129A630A2003F05C
:100DE0006AFF00BF80BD00BF00000240BC030020BE
:100DF00080B584B000AF78600C21344801F014FF56
:100E00000021334801F010FF0421314801F00CFFAC
:100E10000023FB8104E0FFF7C1FFFB890A33FB815C
:100E2000FB8940F6B7329342F5D9FFF7A5FF274B70
:100E30001B6864221A644FF47A7003F03CFF0023AD
:100E4000FB8104E0FFF7AAFFFB890A33FB81FB89E2
:100E5000B3F57A7FF6D3FFF78FFF1C4B1B68912207
:100E60001A644FF47A7003F026FF0023FB8104E03C
:100E7000FFF794FFFB890A33FB81FB8940F6B73209
:100E80009342F5D9FFF778FF104B1B68C8221A640C
:100E90004FF47A7003F00FFF0023FB8104E0FFF7AB
:100EA0007DFFFB890A33FB81FB89B3F57A7FF6D39B
:100EB000FFF762FF054B1B6891221A644FF47A70AA
:100EC00003F0F9FE0023FB81AAE700BFE402002043
:100ED000BC03002080B58CB000AF78603C21364860
:100EE00002F010F8344B1B685B6AFB6200F0D0FD27
:100EF000786200F0CDFD02467B6AD31AB3F57A7FA3
:100F0000F7D92D4B1B685B6A3B622B4B1B681B6838
:100F100003F01003102B10D13A6AFB6A9A4204DAEC
:100F2000FA6A3B6AD31ABB6217E03B6AC3F57F4398
:100F3000FF33FA6A1344BB620FE03A6AFB6A9A42D3
:100F400004DD3A6AFB6AD31ABB6206E0FB6AC3F5AA
:100F50007F43FF333A6A1344BB6207F10803BA6A5E
:100F60001649184605F0EAF807F108031A46142155
:100F70000A2000F019FA104B1B681B6803F01003DD
:100F8000102B0CBF01230023DBB2FB83FA8B07F18C
:100F900008030B49184605F0D1F807F108031A4673
:100FA0001E210A2000F000FA034B1B685B6AFB62FB
:100FB00000F06EFD78629CE72C030020FC6A0008BC
:100FC0000C6B000880B58CB000AF78603C213648CF
:100FD00001F098FF344B1B685B6AFB6200F058FD20
:100FE000786200F055FD02467B6AD31AB3F57A7F2A
:100FF000F7D92D4B1B685B6A3B622B4B1B681B6848
:1010000003F01003102B10D13A6AFB6A9A4204DAFB
:10101000FA6A3B6AD31ABB6217E03B6AC3F57F43A7
:10102000FF33FA6A1344BB620FE03A6AFB6A9A42E2
:1010300004DD3A6AFB6AD31ABB6206E0FB6AC3F5B9
:101040007F43FF333A6A1344BB6207F10803BA6A6D
:101050001649184605F072F807F108031A462821C8
:101060000A2000F0A1F9104B1B681B6803F0100365
:10107000102B0CBF01230023DBB2FB83FA8B07F19B
:1010800008030B49184605F059F807F108031A46FA
:1010900032210A2000F088F9034B1B685B6AFB626F
:1010A00000F0F6FC78629CE774030020186B0008DF
:1010B000286B000880B400AF72B600BFFEE70000E6
:1010C00080B582B000AF0023FB7126E0FB79503B76
:1010D000DBB20021184600F02BF80021002000F0C0
:1010E00027F80021102000F023F80023BB710DE049
:1010F000BA79FB790D49D2000A4413441B780121C7
:10110000184600F015F8BB790133BB7197F906302A
:10111000002BEDDAFB790133FB71FB79072BD5D975
:1011200000BF00BF0837BD4680BD00BF700400206F
:1011300080B584B000AF03460A46FB711346BB710D
:10114000BB79002B06D001224FF480711C4801F0BE
:101150000FF805E000224FF48071194801F008F8FB
:101160000023FB731EE000222021154801F000F847
:1011700097F90730002B05DA01224021104800F0D2
:10118000F7FF04E0002240210D4800F0F1FF0122AA
:1011900020210B4800F0ECFFFB795B00FB71FB7B2F
:1011A0000133FB73FB7B072BDDD901224FF48071E8
:1011B000034800F0DDFF00BF1037BD4680BD00BF13
:1011C0000010024080B582B000AF0023FB7114E034
:1011D0000023BB710AE0BA79FB790C49D2000A44BA
:1011E000134400221A70BB790133BB7197F90630A2
:1011F000002BF0DAFB790133FB71FB79072BE7D980
:10120000FFF75EFF00BF0837BD4680BD70040020B9
:1012100080B485B000AF0346FB710B46BB7113462B
:101220007B710023FB7397F90730002B41DBBB79FF
:101230003F2B3ED8BB79DB08DBB2C3F10703BB739E
:10124000BB7903F007037B737B7BC3F107030122A8
:1012500002FA03F3FB737B79002B12D0FA79BB7B84
:101260001749D2000A4413441878FA79BB7BF97BFA
:101270000143C8B21249D2000A44134402461A700C
:1012800018E0FA79BB7B0E49D2000A4413441B785C
:101290005AB297F90F30DB435BB2134059B2FA7977
:1012A000BB7BC8B20649D2000A44134402461A70F6
:1012B00000E000BF1437BD465DF8047B704700BFF7
:1012C0007004002090B585B000AF04460846114672
:1012D0001A462346FB710346BB710B467B711346CE
:1012E0003B71BB793B737B79203B7B710023BB73E4
:1012F0004DE03B790C2B0BD17A79B97B284813460A
:101300005B0013449B0003440B441B78FB7307E012
:101310007A79BB7B234912010A4413441B78FB737F
:1013200000237B732DE097F90F30002B07DA97F835
:101330002020B979FB791846FFF76AFF0CE097F88F
:101340002030002B0CBF01230023DBB21A46B979F1
:10135000FB791846FFF75CFFFB7B5B00FB73BB79F7
:101360000133BB71BA793B7BD21A3B799A4205D1E2
:101370003B7BBB71FB790133FB7105E07B7B013368
:101380007B737B7B072BCED9BB7B0133BB73BA7BD3
:101390003B799A42ADD300BF00BF1437BD4690BD24
:1013A0003C6B0008B06F000880B584B002AF034604
:1013B0003A60FB710B46BB711FE0FB797A2B04D9B5
:1013C0000023FB71BB791033BB71BB793A2B05D974
:1013D0000023FB71FB79BB71FFF7F4FE3B681A78C1
:1013E000B979F879012300930C23FFF76BFFFB79A0
:1013F0000833FB713B6801333B603B681B78002B73
:10140000DBD100BF00BF0837BD4680BD80B500AF4F
:1014100000F0E2FE414B1B6F404A23F001031367CB
:101420003E4B1B6F3D4A23F00403136700F0E8FEB8
:10143000002280213A4800F09BFE642000F034FB3B
:1014400001228021364800F093FE0021AE20FFF7F4
:101450006FFE0021D520FFF76BFE00215020FFF723
:1014600067FE0021A820FFF763FE00213F20FFF761
:101470005FFE0021D320FFF75BFE00210020FFF775
:1014800057FE00214020FFF753FE00218D20FFF77B
:101490004FFE00211420FFF74BFE00212020FFF714
:1014A00047FE00210220FFF743FE0021A120FFF7A5
:1014B0003FFE0021C020FFF73BFE0021DA20FFF7AE
:1014C00037FE00211220FFF733FE00218120FFF7B5
:1014D0002FFE0021EF20FFF72BFE0021D920FFF780
:1014E00027FE0021F120FFF723FE0021DB20FFF77C
:1014F0001FFE00213020FFF71BFE0021A420FFF774
:1015000017FE0021A620FFF713FE0021AF20FFF7F2
:101510000FFEFFF757FE00BF80BD00BF003802403E
:101520000010024080B582B000AF00237B60124BF8
:101530005B6C114A43F4804353640F4B5B6C03F4C0
:1015400080437B607B6800233B600B4B1B6C0A4A2B
:1015500043F080531364084B1B6C03F080533B60D3
:101560003B6800220F216FF0010000F09CFB00BFE0
:101570000837BD4680BD00BF0038024080B485B04A
:1015800000AF78607B681B68154A93420ED1002338
:10159000FB60144B5B6C134A43F001035364114B23
:1015A0005B6C03F00103FB60FB6812E07B681B6867
:1015B0000D4A93420DD10023BB600A4B5B6C094A74
:1015C00043F002035364074B5B6C03F00203BB6000
:1015D000BB6800BF1437BD465DF8047B704700BF91
:1015E00000000140003802400004014080B58CB08A
:1015F00000AF786007F11C0300221A605A609A60FD
:10160000DA601A617B681B68B3F1804F4BD100230D
:10161000BB613F4B1B6C3E4A43F0010313643C4BE0
:101620001B6C03F00103BB61BB6900237B61384B7A
:101630001B6B374A43F001031363354B1B6B03F0FD
:1016400001037B617B6900233B61314B1B6B304A9B
:1016500043F0020313632E4B1B6B03F002033B6149
:101660003B694FF40043FB6102233B6200237B6232
:101670000023BB620123FB6207F11C0319462548C6
:1016800000F0DAFB0823FB6102233B6200237B624C
:101690000023BB620123FB6207F11C0319461E48AD
:1016A00000F0CAFB30E07B681B681C4A93422BD1D8
:1016B0000023FB60164B1B6C154A43F002031364B6
:1016C000134B1B6C03F00203FB60FB680023BB6041
:1016D0000F4B1B6B0E4A43F0010313630C4B1B6B48
:1016E00003F00103BB60BB68C023FB6102233B62C4
:1016F00000237B620023BB620223FB6207F11C0311
:101700001946044800F098FB00BF3037BD4680BD45
:101710000038024000000240000402400004004083
:1017200080B58AB000AF786007F1140300221A6018
:101730005A609A60DA601A617B681B68244A934297
:101740001FD100233B61234B1B6B224A43F0100344
:101750001363204B1B6B03F010033B613B694FF499
:1017600080437B610223BB610023FB6100233B625A
:1017700001237B6207F114031946174800F05CFB54
:1017800022E07B681B68154A93421DD10023FB6051
:10179000104B1B6B0F4A43F0040313630D4B1B6B81
:1017A00003F00403FB60FB68C0237B610223BB6181
:1017B0000023FB6100233B6203237B6207F11403D8
:1017C0001946074800F038FB00BF2837BD4680BDEA
:1017D00000000140003802400010024000040140B7
:1017E0000008024080B58AB000AF786007F11403AA
:1017F00000221A605A609A60DA601A617B681B687E
:101800001D4A934234D100233B611C4B1B6C1B4A85
:1018100043F480231364194B1B6C03F480233B6156
:101820003B690023FB60154B1B6B144A43F0040318
:101830001363124B1B6B03F00403FB60FB684FF454
:1018400040637B610223BB610023FB6103233B6296
:1018500007237B6207F114031946094800F0ECFAEC
:1018600000220521272000F01EFA272000F037FA79
:1018700000BF2837BD4680BD004800400038024008
:101880000008024080B400AFFEE780B400AFFEE77E
:1018900080B400AFFEE780B400AFFEE780B400AFD5
:1018A000FEE780B400AF00BFBD465DF8047B704723
:1018B00080B500AF00F0D8F803F080FF0346012B9D
:1018C00001D004F0C1F900BF80BD000080B500AFB9
:1018D000024802F01DFA00BF80BD00BF04040020D2
:1018E00080B586B000AF7860144A154BD31A7B617F
:1018F0007B693B61134B1B68002B02D1114B124AD1
:101900001A60104B1A687B6813443A699A4207D2EE
:1019100004F0D4FB03460C221A604FF0FF3309E0B9
:10192000084B1B68FB60074B1A687B681344054A29
:101930001360FB6818461837BD4680BD00000220C2
:101940000004000070080020E045002080B400AFD3
:10195000064BD3F88830054A43F47003C2F8883048
:1019600000BFBD465DF8047B704700BF00ED00E09E
:10197000DFF834D00D480E490E4A002302E0D45857
:10198000C4500433C4188C42F9D30B4A0B4C0023C7
:1019900001E013600432A242FBD3FFF7D7FF04F04B
:1019A00093FBFEF701FE70470000022000000020BC
:1019B00074000020FC75000874000020DC45002045
:1019C000FEE7000080B500AF0E4B1B680D4A43F4E4
:1019D000007313600B4B1B680A4A43F48063136067
:1019E000084B1B68074A43F480731360032000F020
:1019F0004FF90F2000F008F8FFF794FD0023184678
:101A000080BD00BF003C024080B582B000AF78606E
:101A1000124B1A68124B1B7819464FF47A73B3FBBA
:101A2000F1F3B2FBF3F3184600F067F90346002B1D
:101A300001D001230EE07B680F2B0AD800227968C1
:101A40004FF0FF3000F02FF9064A7B681360002347
:101A500000E0012318460837BD4680BD0000002085
:101A6000080000200400002080B400AF064B1B7863
:101A70001A46064B1B681344044A136000BFBD4658
:101A80005DF8047B704700BF080000207408002048
:101A900080B400AF034B1B681846BD465DF8047B5D
:101AA000704700BF7408002080B584B000AF786034
:101AB000FFF7EEFFB8607B68FB60FB68B3F1FF3FA8
:101AC00005D00A4B1B781A46FB681344FB6000BF25
:101AD000FFF7DEFF0246BB68D31AFA689A42F7D8CE
:101AE00000BF00BF1037BD4680BD00BF080000200A
:101AF00080B485B000AF78607B6803F00703FB60BB
:101B00000C4BDB68BB60BA684FF6FF031340BB6049
:101B1000FB681A02BB68134343F0BF6343F400330E
:101B2000BB60044ABB68D36000BF1437BD465DF894
:101B3000047B704700ED00E080B400AF044BDB682D
:101B40001B0A03F007031846BD465DF8047B704787
:101B500000ED00E080B483B000AF0346FB7197F95D
:101B60000730002B0BDBFB7903F01F02074997F9C5
:101B700007305B09012000FA02F241F8232000BF80
:101B80000C37BD465DF8047B704700BF00E100E004
:101B900080B483B000AF03463960FB7197F907301A
:101BA000002B0ADB3B68DAB20C4997F907301201C7
:101BB000D2B20B4483F800230AE03B68DAB208494A
:101BC000FB7903F00F03043B1201D2B20B441A76E7
:101BD00000BF0C37BD465DF8047B704700E100E0B4
:101BE00000ED00E080B489B000AFF860B9607A60C1
:101BF000FB6803F00703FB61FB69C3F10703042BD8
:101C000028BF0423BB61FB690433062B02D9FB699F
:101C1000033B00E000237B614FF0FF32BB6902FA17
:101C200003F3DA43BB681A407B699A404FF0FF31F7
:101C30007B6901FA03F3D9437B680B4013431846D1
:101C40002437BD465DF8047B7047000080B582B044
:101C500000AF78607B68013BB3F1807F01D3012343
:101C60000FE00A4A7B68013B53600F214FF0FF30C1
:101C7000FFF78EFF054B00229A60044B07221A6083
:101C8000002318460837BD4680BD00BF10E000E0C5
:101C900080B582B000AF78607868FFF729FF00BF99
:101CA0000837BD4680BD80B586B000AF0346B96039
:101CB0007A60FB7300237B61FFF73EFF78617A68EF
:101CC000B9687869FFF78EFF024697F90F30114621
:101CD0001846FFF75DFF00BF1837BD4680BD80B5D1
:101CE00082B000AF0346FB7197F907301846FFF743
:101CF00031FF00BF0837BD4680BD80B582B000AF60
:101D000078607868FFF7A2FF034618460837BD469B
:101D100080BD80B584B000AF78607B689B6DFB6050
:101D2000FFF7B6FEB8607B6893F83530DBB2022B64
:101D300008D07B6880225A657B68002283F83420B3
:101D4000012352E07B681B681A687B681B6822F0DD
:101D500016021A607B681B685A697B681B6822F050
:101D600080025A617B681B6C002B03D17B689B6CE3
:101D7000002B07D07B681B681A687B681B6822F001
:101D800008021A607B681B681A687B681B6822F06F
:101D900001021A6013E0FFF77BFE0246BB68D31A0C
:101DA000052B0CD97B6820225A657B68032283F8B7
:101DB00035207B68002283F83420032315E07B68FC
:101DC0001B681B6803F00103002BE4D17B68DB6D0B
:101DD0003F229A40FB689A607B68012283F8352095
:101DE0007B68002283F83420002318461037BD4654
:101DF00080BD80B483B000AF78607B6893F83530E5
:101E0000DBB2022B04D07B6880225A6501230CE0F0
:101E10007B68052283F835207B681B681A687B681D
:101E20001B6822F001021A60002318460C37BD46D9
:101E30005DF8047B7047000080B489B000AF786023
:101E4000396000237B6100233B610023BB610023D9
:101E5000FB616BE10122FB6902FA03F37B613B68E2
:101E60001B687A6913403B613A697B699A4240F08A
:101E70005A813B685B6803F00303012B05D03B6884
:101E80005B6803F00303022B30D17B689B68BB6166
:101E9000FB695B00032202FA03F3DB43BA691340D8
:101EA000BB613B68DA68FB695B0002FA03F3BA695D
:101EB0001343BB617B68BA699A607B685B68BB61EE
:101EC0000122FB6902FA03F3DB43BA691340BB61E9
:101ED0003B685B681B0903F00102FB6902FA03F32C
:101EE000BA691343BB617B68BA695A603B685B6837
:101EF00003F00303032B17D07B68DB68BB61FB692E
:101F00005B00032202FA03F3DB43BA691340BB61AF
:101F10003B689A68FB695B0002FA03F3BA691343F2
:101F2000BB617B68BA69DA603B685B6803F00303F6
:101F3000022B23D1FB69DA087B68083253F8223080
:101F4000BB61FB6903F007039B000F2202FA03F356
:101F5000DB43BA691340BB613B681A69FB6903F054
:101F600007039B0002FA03F3BA691343BB61FB69E1
:101F7000DA087B680832B96943F822107B681B686D
:101F8000BB61FB695B00032202FA03F3DB43BA691E
:101F90001340BB613B685B6803F00302FB695B00B5
:101FA00002FA03F3BA691343BB617B68BA691A602A
:101FB0003B685B6803F44033002B00F0B4800023DF
:101FC000FB60604B5B6C5F4A43F4804353645D4B42
:101FD0005B6C03F48043FB60FB685B4AFB699B0816
:101FE000023352F82330BB61FB6903F003039B000B
:101FF0000F2202FA03F3DB43BA691340BB617B682B
:10200000524A93422BD07B68514A934225D07B6839
:10201000504A93421FD07B684F4A934219D07B6845
:102020004E4A934213D07B684D4A93420DD07B6851
:102030004C4A934207D07B684B4A934201D1072315
:102040000EE008230CE006230AE0052308E0042341
:1020500006E0032304E0022302E0012300E0002362
:10206000FA6902F0030292009340BA691343BB611C
:102070003549FB699B080233BA6941F823203B4B81
:102080009B68BB613B69DB43BA691340BB613B683A
:102090005B6803F48013002B03D0BA693B691343D8
:1020A000BB61324ABB699360304BDB68BB613B6903
:1020B000DB43BA691340BB613B685B6803F4001300
:1020C000002B03D0BA693B691343BB61274ABB6944
:1020D000D360264B5B68BB613B69DB43BA69134045
:1020E000BB613B685B6803F40033002B03D0BA6923
:1020F0003B691343BB611D4ABB6953601B4B1B68A3
:10210000BB613B69DB43BA691340BB613B685B68F9
:1021100003F48033002B03D0BA693B691343BB61DE
:10212000124ABB691360FB690133FB61FB690F2B2A
:102130007FF690AE00BF00BF2437BD465DF8047B3C
:10214000704700BF003802400038014000000240E4
:102150000004024000080240000C0240001002404F
:102160000014024000180240001C0240003C0140E4
:1021700080B483B000AF78600B467B8013467B70E1
:102180007B78002B03D07A887B689A6103E07B8898
:102190001A047B689A6100BF0C37BD465DF8047B6A
:1021A000704780B485B000AF78600B467B807B6859
:1021B0005B69FB607A88FB6813401A04FB68D943AB
:1021C0007B880B401A437B689A6100BF1437BD4679
:1021D0005DF8047B7047000080B483B000AF064B0D
:1021E00001221A60054B1B687B607B6800BF0C37BF
:1021F000BD465DF8047B704720000E420070004031
:1022000080B483B000AF064B00221A60054B1B68F8
:102210007B607B6800BF0C37BD465DF8047B704770
:1022200020000E420070004080B586B000AF78609C
:102230007B68002B01D1012367E27B681B6803F0F8
:102240000103002B75D0884B9B6803F00C03042B13
:102250000CD0854B9B6803F00C03082B12D1824BEA
:102260005B6803F48003B3F5800F0BD17E4B1B68D2
:1022700003F40033002B5BD07B685B68002B57D1E5
:10228000012342E27B685B68B3F5803F06D1764B61
:102290001B68754A43F4803313601DE07B685B68FC
:1022A000B3F5A02F0CD1704B1B686F4A43F4802309
:1022B00013606D4B1B686C4A43F4803313600BE072
:1022C000694B1B68684A23F480331360664B1B68B4
:1022D000654A23F4802313607B685B68002B13D06E
:1022E000FFF7D6FB386108E0FFF7D2FB02463B69F7
:1022F000D31A642B01D9032307E25B4B1B6803F459
:102300000033002BF0D014E0FFF7C2FB386108E087
:10231000FFF7BEFB02463B69D31A642B01D90323A6
:10232000F3E1514B1B6803F40033002BF0D100E0C4
:1023300000BF7B681B6803F00203002B63D04A4B8D
:102340009B6803F00C03002B0BD0474B9B6803F0FA
:102350000C03082B1CD1444B5B6803F48003002B57
:1023600016D1414B1B6803F00203002B05D07B689C
:10237000DB68012B01D00123C7E13B4B1B6823F035
:10238000F8027B681B69DB00374913430B603AE0B6
:102390007B68DB68002B20D0344B01221A60FFF7EA
:1023A00077FB386108E0FFF773FB02463B69D31AFD
:1023B000022B01D90323A8E12B4B1B6803F0020376
:1023C000002BF0D0284B1B6823F0F8027B681B69B8
:1023D000DB00254913430B6015E0244B00221A60F3
:1023E000FFF756FB386108E0FFF752FB02463B69F6
:1023F000D31A022B01D9032387E11B4B1B6803F07F
:102400000203002BF0D17B681B6803F00803002B4C
:1024100036D07B685B69002B16D0154B01221A6001
:10242000FFF736FB386108E0FFF732FB02463B69F5
:10243000D31A022B01D9032367E10B4B5B6F03F027
:102440000203002BF0D01BE0094B00221A60FFF7BB
:102450001FFB38610EE0FFF71BFB02463B69D31AF6
:10246000022B07D9032350E1003802400000474205
:10247000800E4742884B5B6F03F00203002BEAD1CA
:102480007B681B6803F00403002B00F09780002397
:10249000FB75814B1B6C03F08053002B0FD1002385
:1024A000BB607D4B1B6C7C4A43F0805313647A4BBA
:1024B0001B6C03F08053BB60BB680123FB75774B3B
:1024C0001B6803F48073002B18D1744B1B68734A8C
:1024D00043F480731360FFF7DBFA386108E0FFF71D
:1024E000D7FA02463B69D31A022B01D903230CE128
:1024F0006A4B1B6803F48073002BF0D07B689B68E9
:10250000012B06D1644B1B6F634A43F00103136731
:102510001CE07B689B68052B0CD15F4B1B6F5E4AF0
:1025200043F0040313675C4B1B6F5B4A43F00103EA
:1025300013670BE0584B1B6F574A23F001031367D7
:10254000554B1B6F544A23F0040313677B689B6849
:10255000002B15D0FFF79CFA38610AE0FFF798FAD4
:1025600002463B69D31A41F28832934201D90323D0
:10257000CBE0494B1B6F03F00203002BEED014E0BD
:10258000FFF786FA38610AE0FFF782FA02463B69F4
:10259000D31A41F28832934201D90323B5E03E4B6E
:1025A0001B6F03F00203002BEED1FB7D012B05D145
:1025B000394B1B6C384A23F0805313647B689B694A
:1025C000002B00F0A180344B9B6803F00C03082B18
:1025D0005CD07B689B69022B41D1314B00221A6091
:1025E000FFF756FA386108E0FFF752FA02463B69F6
:1025F000D31A022B01D9032387E0274B1B6803F072
:102600000073002BF0D17B68DA697B681B6A1A4380
:102610007B685B6A9B011A437B689B6A5B08013B92
:102620001B041A437B68DB6A1B061B4913434B6080
:102630001B4B01221A60FFF72BFA386108E0FFF705
:1026400027FA02463B69D31A022B01D903235CE027
:10265000114B1B6803F00073002BF0D054E0104BBB
:1026600000221A60FFF714FA386108E0FFF710FA49
:1026700002463B69D31A022B01D9032345E0064BDE
:102680001B6803F00073002BF0D13DE07B689B6971
:10269000012B07D1012338E00038024000700040D0
:1026A000600047421B4B5B68FB607B689B69012BAA
:1026B00028D0FB6803F480027B68DB699A4221D151
:1026C000FB6803F03F027B681B6A9A421AD1FA68E2
:1026D00047F6C07313407A68526A9201934211D14F
:1026E000FB6803F440327B689B6A5B08013B1B0478
:1026F0009A4207D1FB6803F070627B68DB6A1B06B5
:102700009A4201D0012300E0002318461837BD4645
:1027100080BD00BF0038024080B584B000AF786053
:1027200039607B68002B01D10123CCE0684B1B682A
:1027300003F007033A689A420CD9654B3A68D2B263
:102740001A70634B1B6803F007033A689A4201D082
:102750000123B8E07B681B6803F00203002B20D044
:102760007B681B6803F00403002B05D0594B9B6862
:10277000584A43F4E05393607B681B6803F00803F6
:10278000002B05D0534B9B68524A43F4604393603F
:10279000504B9B6823F0F0027B689B684D491343C4
:1027A0008B607B681B6803F00103002B44D07B68BF
:1027B0005B68012B07D1474B1B6803F40033002BE8
:1027C00019D101237FE07B685B68022B03D07B6813
:1027D0005B68032B07D13F4B1B6803F00073002B92
:1027E00009D101236FE03B4B1B6803F00203002B70
:1027F00001D1012367E0374B9B6823F003027B681C
:102800005B68344913438B60FFF742F9F8600AE0D4
:10281000FFF73EF90246FB68D31A41F28832934231
:1028200001D903234FE02B4B9B6803F00C027B681C
:102830005B689B009A42EBD1254B1B6803F00703B2
:102840003A689A420CD2224B3A68D2B21A70204BA4
:102850001B6803F007033A689A4201D0012332E073
:102860007B681B6803F00403002B08D0194B9B689E
:1028700023F4E0527B68DB68164913438B607B6866
:102880001B6803F00803002B09D0124B9B6823F44C
:1028900060427B681B69DB000E4913438B6000F0CC
:1028A00021F802460B4B9B681B0903F00F030A49F2
:1028B000CB5C22FA03F3094A1360094B1B681846E4
:1028C000FFF7A2F8002318461037BD4680BD00BFB1
:1028D000003C024000380240A075000800000020C3
:1028E000040000202DE9B04F90B000AF00237B63BF
:1028F0000023FB6300233B630023BB63594B9B68AE
:1029000003F00C03082B0DD0082B00F2A180002B44
:1029100002D0042B03D09BE0534BBB639BE0534B93
:10292000BB6398E04F4B5B6803F03F037B634D4B09
:102930005B6803F48003002B28D04A4B5B689B093B
:1029400000223B627A623B6AC3F308000021474BD6
:1029500003FB01F2002300FB03F31344434AA0FBF3
:102960000212FA620A46BA62FA6A1344FB627B6B8D
:102970000022BB61FA61D7E90623D7E90A01FDF716
:1029800077FC02460B461346FB6353E0354B5B680E
:102990009B0900223B617A613B69C3F3080A4FF04F
:1029A000000B52465B464FF000004FF0000159010A
:1029B00041EAD261500102460B46B2EB0A0863EBD2
:1029C0000B094FF000024FF000034FEA891343EA6E
:1029D00098634FEA8812B2EB080463EB09054FF0E5
:1029E00000024FF00003EB0043EA5473E200144688
:1029F0001D4614EB0A033B6045EB0B037B604FF075
:102A000000024FF00003D7E9004529468B0221461A
:102A100043EA915321468A02104619467B6B0022F5
:102A2000BB60FA60D7E90223FDF722FC02460B46A1
:102A30001346FB630B4B5B681B0C03F00303013372
:102A40005B003B63FA6B3B6BB2FBF3F3BB6302E0EF
:102A5000054BBB6300BFBB6B18464037BD46BDE8A6
:102A6000B08F00BF003802400024F40040787D01A0
:102A700080B400AF034B1B681846BD465DF8047B6D
:102A8000704700BF0000002080B500AFFFF7F0FFE7
:102A90000246054B9B689B0A03F007030349CB5C86
:102AA00022FA03F3184680BD00380240B0750008D2
:102AB00080B500AFFFF7DCFF0246054B9B685B0B60
:102AC00003F007030349CB5C22FA03F3184680BDE9
:102AD00000380240B075000880B582B000AF786061
:102AE0007B68002B01D1012341E07B6893F83D30E6
:102AF000DBB2002B06D17B68002283F83C2078688B
:102B0000FEF73CFD7B68022283F83D207B681A6853
:102B10007B6804331946104600F00CFC7B680122E8
:102B200083F846207B68012283F83E207B680122DF
:102B300083F83F207B68012283F840207B680122D4
:102B400083F841207B68012283F842207B680122C0
:102B500083F843207B68012283F844207B680122AC
:102B600083F845207B68012283F83D200023184626
:102B70000837BD4680BD80B582B000AF78607B6805
:102B8000002B01D1012341E07B6893F83D30DBB29B
:102B9000002B06D17B68002283F83C20786800F087
:102BA00039F87B68022283F83D207B681A687B68CD
:102BB00004331946104600F0BDFB7B68012283F800
:102BC00046207B68012283F83E207B68012283F83F
:102BD0003F207B68012283F840207B68012283F834
:102BE00041207B68012283F842207B68012283F820
:102BF00043207B68012283F844207B68012283F80C
:102C000045207B68012283F83D20002318460837C1
:102C1000BD4680BD80B483B000AF786000BF0C3784
:102C2000BD465DF8047B704780B584B000AF786026
:102C300039603B68002B09D17B6893F83E30DBB2EA
:102C4000012B14BF01230023DBB222E03B68042BDD
:102C500009D17B6893F83F30DBB2012B14BF01230D
:102C60000023DBB215E03B68082B09D17B6893F8A1
:102C70004030DBB2012B14BF01230023DBB208E09C
:102C80007B6893F84130DBB2012B14BF0123002392
:102C9000DBB2002B01D001237CE03B68002B04D188
:102CA0007B68022283F83E2013E03B68042B04D1AA
:102CB0007B68022283F83F200BE03B68082B04D19D
:102CC0007B68022283F8402003E07B68022283F8BD
:102CD00041207B681B6801223968184600F014FE09
:102CE0007B681B682D4A934204D07B681B682C4A82
:102CF000934201D1012300E00023002B07D07B6821
:102D00001B685A6C7B681B6842F400425A647B68FB
:102D10001B68224A934222D07B681B68B3F1804F24
:102D20001DD07B681B681F4A934218D07B681B68C4
:102D30001D4A934213D07B681B681C4A93420ED0F5
:102D40007B681B68164A934209D07B681B68184A47
:102D5000934204D07B681B68164A934211D17B686A
:102D60001B689B6803F00703FB60FB68062B10D011
:102D70007B681B681A687B681B6842F001021A6056
:102D800007E07B681B681A687B681B6842F00102D9
:102D90001A60002318461037BD4680BD0000014070
:102DA000000401400004004000080040000C004006
:102DB000004001400018004080B586B000AF786048
:102DC00039607B68002B01D1012397E07B6893F881
:102DD0003D30DBB2002B06D17B68002283F83C201B
:102DE0007868FEF703FC7B68022283F83D207B684D
:102DF0001B689B687A68126823F4804323F00703FA
:102E000093607B681A687B6804331946104600F0AB
:102E100091FA7B681B689B687B617B681B689B6978
:102E20003B617B681B681B6AFB603B681B687A69B7
:102E300013437B613B6923F4407323F003033B613D
:102E40003B689A683B689B691B0213433A691343CA
:102E50003B613B6923F4406323F00C033B613B6916
:102E600023F4704323F0F0033B613B68DA683B686E
:102E7000DB691B0213433A6913433B613B681B69DF
:102E80001A013B681B6A1B0313433A6913433B61F6
:102E9000FB6823F02203FB60FB6823F08803FB60E0
:102EA0003B685A683B685B691B011343FA6813432C
:102EB000FB607B681B687A699A607B681B683A696B
:102EC0009A617B681B68FA681A627B68012283F842
:102ED00046207B68012283F83E207B68012283F82C
:102EE0003F207B68012283F842207B68012283F81F
:102EF00043207B68012283F83D20002318461837C1
:102F0000BD4680BD80B584B000AF786039607B6815
:102F100093F83E30FB737B6893F83F30BB737B685C
:102F200093F842307B737B6893F843303B733B6884
:102F3000002B10D1FB7B012B02D17B7B012B01D01D
:102F4000012369E07B68022283F83E207B6802222D
:102F500083F8422031E03B68042B10D1BB7B012B6E
:102F600002D13B7B012B01D0012355E07B6802227B
:102F700083F83F207B68022283F843201DE0FB7B1F
:102F8000012B08D1BB7B012B05D17B7B012B02D10F
:102F90003B7B012B01D001233EE07B68022283F8BA
:102FA0003E207B68022283F83F207B68022283F860
:102FB00042207B68022283F843203B68002B03D029
:102FC0003B68042B08D00FE07B681B6801220021BE
:102FD000184600F099FC16E07B681B68012204216A
:102FE000184600F091FC0EE07B681B68012200216E
:102FF000184600F089FC7B681B68012204211846F2
:1030000000F082FC00BF7B681B681A687B681B6845
:1030100042F001021A60002318461037BD4680BDF9
:1030200080B586B000AFF860B9607A600023FB75A8
:10303000FB6893F83C30012B01D10223AEE0FB6822
:10304000012283F83C207B680C2B00F29F8001A2B8
:1030500052F823F0893000088D3100088D310008C6
:103060008D310008C93000088D3100088D3100080D
:103070008D3100080B3100088D3100088D310008BA
:103080008D3100084B310008FB681B68B968184691
:1030900000F0F0F9FB681B689A69FB681B6842F056
:1030A00008029A61FB681B689A69FB681B6822F03A
:1030B00004029A61FB681B689969BB681A69FB681E
:1030C0001B680A439A6164E0FB681B68B96818468C
:1030D00000F040FAFB681B689A69FB681B6842F4C1
:1030E00000629A61FB681B689A69FB681B6822F49E
:1030F00080629A61FB681B689969BB681B691A0248
:10310000FB681B680A439A6143E0FB681B68B96867
:10311000184600F095FAFB681B68DA69FB681B68C3
:1031200042F00802DA61FB681B68DA69FB681B6819
:1031300022F00402DA61FB681B68D969BB681A696E
:10314000FB681B680A43DA6123E0FB681B68B96807
:10315000184600F0E9FAFB681B68DA69FB681B682F
:1031600042F40062DA61FB681B68DA69FB681B687D
:1031700022F48062DA61FB681B68D969BB681B694D
:103180001A02FB681B680A43DA6102E00123FB753F
:1031900000BFFB68002283F83C20FB7D18461837EF
:1031A000BD4680BD80B584B000AF78603960002333
:1031B000FB737B6893F83C30012B01D10223B4E010
:1031C0007B68012283F83C207B68022283F83D2043
:1031D0007B681B689B68BB60BB6823F07703BB60A0
:1031E000BB6823F47F43BB607B681B68BA689A6046
:1031F0003B681B68B3F5005F3ED0B3F5005F00F29B
:103200008780B3F5805F00F08680B3F5805F7FD85C
:10321000702B1AD0702B7BD8602B50D0602B77D8B6
:10322000502B3CD0502B73D8402B58D0402B6FD80C
:10323000302B64D0302B6BD8202B60D0202B67D85C
:10324000002B5CD0102B5AD062E07B6818683B687A
:1032500099683B685A683B68DB6800F035FB7B681F
:103260001B689B68BB60BB6843F07703BB607B68EF
:103270001B68BA689A604FE07B6818683B68996879
:103280003B685A683B68DB6800F01EFB7B681B6884
:103290009A687B681B6842F480429A603CE07B68D5
:1032A00018683B6859683B68DB681A4600F092FA78
:1032B0007B681B685021184600F0EBFA2CE07B6815
:1032C00018683B6859683B68DB681A4600F0B1FA39
:1032D0007B681B686021184600F0DBFA1CE07B6805
:1032E00018683B6859683B68DB681A4600F072FA58
:1032F0007B681B684021184600F0CBFA0CE07B6825
:103300001A683B681B681946104600F0C2FA03E0D1
:103310000123FB7300E000BF7B68012283F83D209E
:103320007B68002283F83C20FB7B18461037BD46A3
:1033300080BD000080B485B000AF786039607B68E4
:103340001B68FB607B68404A934213D07B68B3F1F3
:10335000804F0FD07B683D4A93420BD07B683C4A3C
:10336000934207D07B683B4A934203D07B683A4A3A
:10337000934208D1FB6823F07003FB603B685B68F5
:10338000FA681343FB607B682F4A93422BD07B681B
:10339000B3F1804F27D07B682C4A934223D07B68BF
:1033A0002B4A93421FD07B682A4A93421BD07B68EA
:1033B000294A934217D07B68284A934213D07B68EE
:1033C000274A93420FD07B68264A93420BD07B68F2
:1033D000254A934207D07B68244A934203D07B68F6
:1033E000234A934208D1FB6823F44073FB603B6897
:1033F000DB68FA681343FB60FB6823F080023B68DC
:103400005B691343FB607B68FA681A603B689A68E3
:103410007B68DA623B681A687B689A627B680A4A52
:10342000934203D07B680C4A934203D13B681A69EC
:103430007B681A637B6801225A6100BF1437BD465E
:103440005DF8047B704700BF0000014000040040AD
:1034500000080040000C0040000401400040014012
:10346000004401400048014000180040001C00409A
:103470000020004080B487B000AF786039607B687E
:103480001B6A23F001027B681A627B681B6A7B61FE
:103490007B685B683B617B689B69FB60FB6823F032
:1034A0007003FB60FB6823F00303FB603B681B6851
:1034B000FA681343FB607B6923F002037B613B687E
:1034C0009B687A6913437B617B68204A934203D0EF
:1034D0007B681F4A93420CD17B6923F008037B6110
:1034E0003B68DB687A6913437B617B6923F00403E3
:1034F0007B617B68154A934203D07B68144A9342F0
:1035000011D13B6923F480733B613B6923F4007361
:103510003B613B685B693A6913433B613B689B696C
:103520003A6913433B617B683A695A607B68FA6881
:103530009A613B685A687B685A637B687A691A6249
:1035400000BF1C37BD465DF8047B7047000001409A
:103550000004014080B487B000AF786039607B68B8
:103560001B6A23F010027B681A627B681B6A7B610E
:103570007B685B683B617B689B69FB60FB6823F44D
:10358000E043FB60FB6823F44073FB603B681B680F
:103590001B02FA681343FB607B6923F020037B6105
:1035A0003B689B681B017A6913437B617B68224AF5
:1035B000934203D07B68214A93420DD17B6923F06B
:1035C00080037B613B68DB681B017A6913437B6185
:1035D0007B6923F040037B617B68174A934203D0E9
:1035E0007B68164A934213D13B6923F480633B61A5
:1035F0003B6923F400633B613B685B699B003A696C
:1036000013433B613B689B699B003A6913433B61F1
:103610007B683A695A607B68FA689A613B685A68C5
:103620007B689A637B687A691A6200BF1C37BD4663
:103630005DF8047B704700BF0000014000040140BA
:1036400080B487B000AF786039607B681B6A23F470
:1036500080727B681A627B681B6A7B617B685B682F
:103660003B617B68DB69FB60FB6823F07003FB60F8
:10367000FB6823F00303FB603B681B68FA68134395
:10368000FB607B6923F400737B613B689B681B02D2
:103690007A6913437B617B68214A934203D07B683C
:1036A000204A93420DD17B6923F400637B613B6820
:1036B000DB681B027A6913437B617B6923F48063B7
:1036C0007B617B68164A934203D07B68154A93421C
:1036D00013D13B6923F480533B613B6923F40053CE
:1036E0003B613B685B691B013A6913433B613B6883
:1036F0009B691B013A6913433B617B683A695A60D5
:103700007B68FA68DA613B685A687B68DA637B68D1
:103710007A691A6200BF1C37BD465DF8047B7047AA
:10372000000001400004014080B487B000AF786021
:1037300039607B681B6A23F480527B681A627B685D
:103740001B6A3B617B685B687B617B68DB69FB6054
:10375000FB6823F4E043FB60FB6823F44073FB60E9
:103760003B681B681B02FA681343FB603B6923F448
:1037700000533B613B689B681B033A6913433B6101
:103780007B68124A934203D07B68114A934209D165
:103790007B6923F480437B613B685B699B017A69A9
:1037A00013437B617B687A695A607B68FA68DA61E7
:1037B0003B685A687B681A647B683A691A6200BF82
:1037C0001C37BD465DF8047B704700BF0000014018
:1037D0000004014080B487B000AFF860B9607A603F
:1037E000FB681B6A7B61FB681B6A23F00102FB68B4
:1037F0001A62FB689B693B613B6923F0F0033B6104
:103800007B681B013A6913433B617B6923F00A0320
:103810007B617A69BB6813437B61FB683A699A6193
:10382000FB687A691A6200BF1C37BD465DF8047BED
:10383000704780B487B000AFF860B9607A60FB6809
:103840001B6A23F01002FB681A62FB689B697B61AC
:10385000FB681B6A3B617B6923F470437B617B6877
:103860001B037A6913437B613B6923F0A0033B612F
:10387000BB681B013A6913433B61FB687A699A6133
:10388000FB683A691A6200BF1C37BD465DF8047BCD
:10389000704780B485B000AF786039607B689B6802
:1038A000FB60FB6823F07003FB603A68FB6813431E
:1038B00043F00703FB607B68FA689A6000BF143727
:1038C000BD465DF8047B704780B487B000AFF860F8
:1038D000B9607A603B60FB689B687B617B6923F41D
:1038E0007F437B613B681A027B681A43BB681343C2
:1038F0007A6913437B61FB687A699A6000BF1C3761
:10390000BD465DF8047B704780B487B000AFF860B7
:10391000B9607A60BB6803F01F03012202FA03F367
:103920007B61FB681A6A7B69DB431A40FB681A6299
:10393000FB681A6ABB6803F01F03796801FA03F396
:103940001A43FB681A6200BF1C37BD465DF8047B52
:103950007047000080B485B000AF786039607B6844
:1039600093F83C30012B01D102235AE07B680122FD
:1039700083F83C207B68022283F83D207B681B682B
:103980005B68FB607B681B689B68BB60FB6823F01F
:103990007003FB603B681B68FA681343FB607B683D
:1039A0001B68FA685A607B681B68214A934222D0E0
:1039B0007B681B68B3F1804F1DD07B681B681D4A74
:1039C000934218D07B681B681B4A934213D07B68D4
:1039D0001B681A4A93420ED07B681B68184A9342B0
:1039E00009D07B681B68174A934204D07B681B6828
:1039F000154A93420CD1BB6823F08003BB603B683F
:103A00005B68BA681343BB607B681B68BA689A60DE
:103A10007B68012283F83D207B68002283F83C20EC
:103A2000002318461437BD465DF8047B704700BF7D
:103A3000000001400004004000080040000C00406D
:103A400000040140004001400018004080B485B0EF
:103A500000AF786039600023FB607B6893F83C30EE
:103A6000012B01D102233DE07B68012283F83C2039
:103A7000FB6823F0FF023B68DB681343FB60FB68D5
:103A800023F440723B689B681343FB60FB6823F49C
:103A900080623B685B681343FB60FB6823F4006251
:103AA0003B681B681343FB60FB6823F480523B6850
:103AB0001B691343FB60FB6823F400523B685B699E
:103AC0001343FB60FB6823F480423B68DB691343CC
:103AD000FB607B681B68FA685A647B68002283F885
:103AE0003C20002318461437BD465DF8047B704720
:103AF00080B582B000AF78607B68002B01D10123D4
:103B00003FE07B6893F83D30DBB2002B06D17B6849
:103B1000002283F83C207868FDF764FE7B6824224D
:103B200083F83D207B681B68DA687B681B6822F499
:103B30000052DA60786800F0DFFD7B681B681A6964
:103B40007B681B6822F490421A617B681B685A6983
:103B50007B681B6822F02A025A617B681B68DA685E
:103B60007B681B6842F40052DA607B6800221A64AA
:103B70007B68202283F83D207B68202283F83E204A
:103B8000002318460837BD4680BD80B58AB002AF15
:103B9000F860B9603B601346FB8000237B61FB68E3
:103BA00093F83D30DBB2202B7CD1BB68002B02D0D8
:103BB000FB88002B01D1012375E0FB6893F83C30B2
:103BC000012B01D102236EE0FB68012283F83C2027
:103BD000FB6800221A64FB68212283F83D20FDF770
:103BE00057FF7861FB68FA889A84FB68FA88DA8460
:103BF000FB689B68B3F5805F08D1FB681B69002BED
:103C000004D10023FB61BB68BB6103E0BB68FB61BF
:103C10000023BB61FB68002283F83C202AE03B685C
:103C200000937B6900228021F86800F01FFB0346A7
:103C3000002B01D0032336E0FB69002B0BD1BB69BD
:103C40001B881A46FB681B68C2F308025A60BB69EE
:103C50000233BB6107E0FB691A78FB681B685A6096
:103C6000FB690133FB61FB68DB8C9BB2013B9AB2C1
:103C7000FB68DA84FB68DB8C9BB2002BCFD13B68FE
:103C800000937B6900224021F86800F0EFFA0346B8
:103C9000002B01D0032306E0FB68202283F83D209F
:103CA000002300E0022318462037BD4680BD80B5C2
:103CB00084B000AFF860B9601346FB80FB6893F8EE
:103CC0003E30DBB2202B1DD1BB68002B02D0FB881D
:103CD000002B01D1012316E0FB6893F83C30012B47
:103CE00001D102230FE0FB68012283F83C20FB682E
:103CF00000221A63FB881A46B968F86800F024FBB2
:103D0000034600E0022318461037BD4680BD000080
:103D100080B5BAB000AF78607B681B681B68C7F8D5
:103D2000E4307B681B68DB68C7F8E0307B681B68A1
:103D30005B69C7F8DC300023C7F8D8300023C7F828
:103D4000D430D7F8E43003F00F03C7F8D830D7F8F1
:103D5000D830002B0FD1D7F8E43003F02003002B2C
:103D600009D0D7F8E03003F02003002B03D07868A7
:103D700000F007FC56E2D7F8D830002B00F0DE80C8
:103D8000D7F8DC3003F00103002B06D1D7F8E03080
:103D900003F49073002B00F0D180D7F8E43003F0E7
:103DA0000103002B0BD0D7F8E03003F48073002B15
:103DB00005D07B681B6C43F001027B681A64D7F85E
:103DC000E43003F00403002B0BD0D7F8DC3003F011
:103DD0000103002B05D07B681B6C43F002027B685B
:103DE0001A64D7F8E43003F00203002B0BD0D7F8A5
:103DF000DC3003F00103002B05D07B681B6C43F023
:103E000004027B681A64D7F8E43003F00803002B3F
:103E100011D0D7F8E03003F02003002B05D1D7F8FC
:103E2000DC3003F00103002B05D07B681B6C43F0F2
:103E300008027B681A647B681B6C002B00F0ED8124
:103E4000D7F8E43003F02003002B08D0D7F8E03097
:103E500003F02003002B02D0786800F092FB7B680F
:103E60001B685B6903F04003402B0CBF0123002358
:103E7000DBB2C7F8D4307B681B6C03F00803002B5F
:103E800003D1D7F8D430002B4FD0786800F09AFADD
:103E90007B681B685B6903F04003402B41D17B6862
:103EA0001B681433C7F89C30D7F89C3053E8003FA8
:103EB000C7F89830D7F8983023F04003C7F8D030CF
:103EC0007B681B681433D7F8D020C7F8A820C7F840
:103ED000A430D7F8A410D7F8A82041E80023C7F8E9
:103EE000A030D7F8A030002BD9D17B689B6B002B7A
:103EF00013D07B689B6B7D4A1A657B689B6B184669
:103F0000FDF777FF0346002B16D07B689B6B1B6D7C
:103F10007A68926B104698470EE0786800F090F946
:103F20000AE0786800F08CF906E0786800F088F91B
:103F30007B6800221A6470E100BF6EE17B681B6B36
:103F4000012B40F04A81D7F8E43003F01003002B36
:103F500000F04381D7F8E03003F01003002B00F0AD
:103F60003C810023BB607B681B681B68BB607B686F
:103F70001B685B68BB60BB687B681B685B6903F0A0
:103F80004003402B40F0B4807B689B6B1B685B68F0
:103F9000A7F8BE30B7F8BE30002B00F040817B6838
:103FA0009B8DB7F8BE209A4280F039817B68B7F8C4
:103FB000BE20DA857B689B6BDB69B3F5807F00F000
:103FC00088807B681B680C33C7F88830D7F8883046
:103FD00053E8003FC7F88430D7F8843023F4807367
:103FE000C7F8B8307B681B680C33D7F8B820C7F81F
:103FF0009420C7F89030D7F89010D7F8942041E873
:104000000023C7F88C30D7F88C30002BD9D17B68CF
:104010001B6814337B677B6F53E8003F3B673B6F44
:1040200023F00103C7F8B4307B681B681433D7F85A
:10403000B420C7F88020FB67F96FD7F8802041E8EB
:104040000023BB67BB6F002BE1D17B681B68143377
:104050003B663B6E53E8003FFB65FB6D23F040037E
:10406000C7F8B0307B681B681433D7F8B020FA6605
:10407000BB66B96EFA6E41E800237B667B6E002B4F
:10408000E3D17B68202283F83E207B6800221A63FC
:104090007B681B680C33FB64FB6C53E8003FBB641C
:1040A000BB6C23F01003C7F8AC307B681B680C3383
:1040B000D7F8AC20BA657B65796DBA6D41E800230D
:1040C0003B653B6D002BE3D17B689B6B1846FDF78E
:1040D00020FE7B689A8D7B68DB8D9BB2D31A9BB2E6
:1040E0001946786800F0B6F899E000BF8B440008E4
:1040F0007B689A8D7B68DB8D9BB2D31AA7F8CE3094
:104100007B68DB8D9BB2002B00F08B80B7F8CE3044
:10411000002B00F086807B681B680C33BB63BB6B95
:1041200053E8003F7B637B6B23F49073C7F8C83080
:104130007B681B680C33D7F8C8207A643B64396C01
:104140007A6C41E80023FB63FB6B002BE3D17B68B7
:104150001B6814337B627B6A53E8003F3B623B6A17
:1041600023F00103C7F8C4307B681B681433D7F809
:10417000C4203A63FB62F96A3A6B41E80023BB62F0
:10418000BB6A002BE3D17B68202283F83E207B684A
:1041900000221A637B681B680C333B613B6953E860
:1041A000003FFB60FB6823F01003C7F8C0307B685A
:1041B0001B680C33D7F8C020FA61BB61B969FA6992
:1041C00041E800237B617B69002BE3D1B7F8CE3057
:1041D0001946786800F03EF823E0D7F8E43003F0A1
:1041E0008003002B09D0D7F8E03003F08003002BC8
:1041F00003D0786800F05DF914E0D7F8E43003F0FC
:104200004003002B0ED0D7F8E03003F04003002B22
:1042100008D0786800F09DF904E000BF02E000BF1C
:1042200000E000BFE837BD4680BD00BF80B483B06A
:1042300000AF786000BF0C37BD465DF8047B704767
:1042400080B483B000AF786000BF0C37BD465DF826
:10425000047B704780B483B000AF78600B467B80EE
:1042600000BF0C37BD465DF8047B704780B590B049
:1042700000AFF860B9603B601346FB7150E0BB6C67
:10428000B3F1FF3F4CD0BB6C002B07D0FDF700FC17
:1042900002463B68D31ABA6C9A4241D2FB681B684B
:1042A0000C33BB62BB6A53E8003F7B627B6A23F43A
:1042B000D073FB63FB681B680C33FA6B7A633B6358
:1042C000396B7A6B41E80023FB62FB6A002BE5D176
:1042D000FB681B6814337B617B6953E8003F3B61DB
:1042E0003B6923F00103BB63FB681B681433BA6BA3
:1042F0003A62FB61F9693A6A41E80023BB61BB6934
:10430000002BE5D1FB68202283F83D20FB682022AA
:1043100083F83E20FB68002283F83C2003230FE053
:10432000FB681B681A68BB681340BA689A420CBFE6
:1043300001230023DBB21A46FB799A429FD0002367
:1043400018464037BD4680BD80B485B000AFF860E8
:10435000B9601346FB80FB68BA689A62FB68FA880A
:104360009A85FB68FA88DA85FB6800221A64FB6884
:10437000222283F83E20FB68002283F83C20FB6861
:104380001B69002B07D0FB681B68DA68FB681B6899
:1043900042F48072DA60FB681B685A69FB681B682C
:1043A00042F001025A61FB681B68DA68FB681B680F
:1043B00042F02002DA60002318461437BD465DF84B
:1043C000047B704780B495B000AF78607B681B6851
:1043D0000C337B637B6B53E8003F3B633B6B23F405
:1043E0009073FB647B681B680C33FA6C3A64FB6364
:1043F000F96B3A6C41E80023BB63BB6B002BE5D142
:104400007B681B6814333B623B6A53E8003FFB61E7
:10441000FB6923F00103BB647B681B681433BA6C2F
:10442000FA62BB62B96AFA6A41E800237B627B6A7E
:10443000002BE5D17B681B6B012B19D17B681B68B6
:104440000C33FB60FB6853E8003FBB60BB6823F0A4
:1044500010037B647B681B680C337A6CBA617B61E8
:104460007969BA6941E800233B613B69002BE5D1DA
:104470007B68202283F83E207B6800221A6300BFFD
:104480005437BD465DF8047B704780B584B000AFFB
:1044900078607B689B6BFB60FB680022DA85FB68B9
:1044A0000022DA84F868FFF7CBFE00BF1037BD4664
:1044B00080BD80B485B000AF78607B6893F83D30F4
:1044C000DBB2212B3ED17B689B68B3F5805F14D1B2
:1044D0007B681B69002B10D17B681B6AFB60FB6843
:1044E0001B881A467B681B68C2F308025A607B6807
:1044F0001B6A9A1C7B681A6208E07B681B6A591C5D
:104500007A6811621A787B681B685A607B68DB8C5A
:104510009BB2013B9BB27A681946D184002B0FD124
:104520007B681B68DA687B681B6822F08002DA60AF
:104530007B681B68DA687B681B6842F04002DA60BF
:10454000002300E0022318461437BD465DF8047BC3
:10455000704780B582B000AF78607B681B68DA680E
:104560007B681B6822F04002DA607B68202283F8B7
:104570003D207868FFF75AFE002318460837BD46ED
:1045800080BD80B58CB000AF78607B6893F83E301A
:10459000DBB2222B40F0AB807B689B68B3F5805F79
:1045A00017D17B681B69002B13D10023FB627B684A
:1045B0009B6ABB627B681B685B689BB2C3F30803A2
:1045C0009AB2BB6A1A807B689B6A9A1C7B689A6263
:1045D00026E07B689B6AFB620023BB627B689B686A
:1045E000B3F5805F07D07B689B68002B0AD17B689E
:1045F0001B69002B06D17B681B685B68DAB2FB6A1B
:104600001A7008E07B681B685B68DBB203F07F030D
:10461000DAB2FB6A1A707B689B6A5A1C7B689A62E2
:104620007B68DB8D9BB2013B9BB27A681946D185D2
:10463000002B5AD17B681B68DA687B681B6822F004
:104640002002DA607B681B68DA687B681B6822F4EA
:104650008072DA607B681B685A697B681B6822F08D
:1046600001025A617B68202283F83E207B681B6B25
:10467000012B35D17B6800221A637B681B680C33E1
:104680007B617B6953E8003F3B613B6923F010038A
:104690007B627B681B680C337A6A3A62FB61F9695A
:1046A0003A6A41E80023BB61BB69002BE5D17B6816
:1046B0001B681B6803F01003102B0AD10023FB605A
:1046C0007B681B681B68FB607B681B685B68FB6022
:1046D000FB687B689B8D19467868FFF7BBFD02E09D
:1046E0007868FCF7E3FA002302E0002300E00223ED
:1046F00018463037BD4680BD2DE9B04FC0B000AF81
:10470000C7F8F400D7F8F4301B681B6923F4405055
:10471000D7F8F430D968D7F8F4301A6840EA0103C2
:104720001361D7F8F4309A68D7F8F4301B691A434C
:10473000D7F8F4305B691A43D7F8F430DB691343D8
:10474000C7F8F830D7F8F4301B68DB6823F416415B
:1047500021F00C01D7F8F4301A68D7F8F8300B4381
:10476000D360D7F8F4301B685B6923F44070D7F846
:10477000F4309969D7F8F4301A6840EA01035361BC
:10478000D7F8F4301A688F4B9A4205D0D7F8F43036
:104790001A688D4B9A4204D1FEF78AF9C7F8FC00DB
:1047A00003E0FEF771F9C7F8FC00D7F8F430DB69D5
:1047B000B3F5004F40F00C81D7F8FC300022C7F869
:1047C000E830C7F8EC20D7E93A4522462B46911845
:1047D000B9655B41FB65D7E91623214612EB010859
:1047E000294643EB01094FF000024FF000034FEA66
:1047F000C90343EA58734FEAC802904699462346D4
:1048000018EB0303C7F8E0302B4649EB0303C7F866
:10481000E430D7F8F4305B680022C7F8D830C7F826
:10482000DC20D7E936120B46DB183B65134642EB1A
:1048300003037B65D7E91423D7E93801FBF718FD9B
:1048400002460B46614BA3FB02235B091C01D7F810
:10485000FC300022C7F8D030C7F8D420D7E934891B
:1048600042464B469118B9645B41FB64D7E9122379
:10487000414612EB010A494643EB010B4FF000029F
:104880004FF000034FEACB0343EA5A734FEACA02E0
:1048900092469B4643461AEB0303C7F8C8304B4683
:1048A0004BEB0303C7F8CC30D7F8F4305B68002239
:1048B000C7F8C030C7F8C420D7E930120B46DB1860
:1048C0003B64134642EB03037B64D7E91023D7E92B
:1048D0003201FBF7CDFC02460B4611463B4BA3FBD6
:1048E00001235B09642202FB03F3CB1ADB0003F113
:1048F0003202364BA3FB02235B095B0003F4F8731F
:104900001C44D7F8FC300022C7F8B830C7F8BC20E8
:10491000D7E92E8942464B469118B9635B41FB6348
:10492000D7E90E2341465118396349464B417B6311
:104930004FF000024FF00003D7E90CAB5946CB0013
:10494000514643EA51735146CA0010461946034680
:1049500042469B18C7F8B0304B460A4642EB030369
:10496000C7F8B430D7F8F4305B680022C7F8A83035
:10497000C7F8AC20D7E92A120B46DB18BB621346F6
:1049800042EB0303FB62D7E90A23D7E92C01FBF7CB
:104990006FFC02460B460D4BA3FB02135B0964211F
:1049A00001FB03F3D31ADB003233084AA2FB0323D3
:1049B0005B0903F00702D7F8F4301B6822449A60C1
:1049C00005E100BF00100140001401401F85EB51BC
:1049D000D7F8FC300022C7F8A030C7F8A420D7E9E8
:1049E000288942464B46911839625B417B62D7E980
:1049F000082341465418494643EB01054FF0000295
:104A00004FF00003EB0043EA5473E20014461D46E6
:104A10004346E318C7F898304B4645EB0303C7F805
:104A20009C30D7F8F4305B680022C7F89030C7F8A4
:104A300094204FF000024FF00003D7E924452946A7
:104A40008B00214643EA917321468A00D7E926016B
:104A5000FBF70EFC02460B46604BA3FB02235B09EF
:104A60001C01D7F8FC300022C7F88830C7F88C202A
:104A7000D7E9228942464B469118B9615B41FB61F7
:104A8000D7E9062341465118396149464B417B61BC
:104A90004FF000024FF00003D7E904AB5946CB00BA
:104AA000514643EA51735146CA001046194603461F
:104AB00042469B18C7F880304B460A4642EB030338
:104AC000C7F88430D7F8F4305B680022BB67FA6718
:104AD0004FF000024FF00003D7E91E8949468B00D2
:104AE000414643EA917341468A00D7E92001FBF72A
:104AF000BFFB02460B46394BA3FB02135B09642143
:104B000001FB03F3D31A1B013233344AA2FB032304
:104B10005B0903F0F0031C44D7F8FC3000223B672C
:104B20007A67D7E91C8942464B469118B9605B41C8
:104B3000FB60D7E9022341465118396049464B4191
:104B40007B604FF000024FF00003D7E900AB5946FD
:104B5000CB00514643EA51735146CA0010461946EC
:104B6000034642469B18BB664B460A4642EB03038C
:104B7000FB66D7F8F4305B6800223B667A664FF03C
:104B800000024FF00003D7E9188949468B004146DF
:104B900043EA917341468A00D7E91A01FBF768FBA3
:104BA00002460B460D4BA3FB02135B09642101FB7C
:104BB00003F3D31A1B013233084AA2FB03235B0918
:104BC00003F00F02D7F8F4301B6822449A6000BF4C
:104BD00007F58077BD46BDE8B08F00BF1F85EB515C
:104BE00080B485B000AF0346FB800023FB60B7F9BB
:104BF0000630842B05D0B7F90620FB681344033335
:104C0000FB60FB6818461437BD465DF8047B7047AF
:104C100080B500AF00F0DEFA0023184680BDF0B585
:104C200089B004AF786039607B685B69002B20D065
:104C30007B689B69002B1CD07B685C687B681D6867
:104C40007B681E697B68B3F908301846FFF7C8FF18
:104C500001467B685B697A689269029201930091D0
:104C60003B6832462946204600F0EDF80346FB60DB
:104C70001CE07B685C687B681D687B681B699EB272
:104C80007B68B3F908301846FFF7AAFF024607F120
:104C90000C03019300923B6832462946204600F0FF
:104CA0002FF90346012B01D0002300E0FB681846D2
:104CB0001437BD46F0BD80B584B000AF78607B6826
:104CC000FB60FB68002B01D0FB6800E00123184665
:104CD00000F04CFA002318461037BD4680BD80B462
:104CE00083B000AF78607B6803F108027B685A608C
:104CF0007B684FF0FF329A607B6803F108027B68A3
:104D0000DA607B6803F108027B681A617B68002225
:104D10001A6000BF0C37BD465DF8047B704780B455
:104D200083B000AF78607B6800221A6100BF0C3747
:104D3000BD465DF8047B704780B485B000AF7860F5
:104D400039607B685B68FB603B68FA685A60FB68A7
:104D50009A683B689A60FB689B683A685A60FB688F
:104D60003A689A603B687A681A617B681B685A1CCB
:104D70007B681A6000BF1437BD465DF8047B70473E
:104D800080B485B000AF786039603B681B68BB6059
:104D9000BB68B3F1FF3F03D17B681B69FB600CE08C
:104DA0007B680833FB6002E0FB685B68FB60FB68C4
:104DB0005B681B68BA689A42F6D2FB685A683B681F
:104DC0005A603B685B683A689A603B68FA689A6028
:104DD000FB683A685A603B687A681A617B681B68AE
:104DE0005A1C7B681A6000BF1437BD465DF8047B0F
:104DF000704780B485B000AF78607B681B69FB604A
:104E00007B685B687A6892689A607B689B687A685E
:104E100052685A60FB685B687A689A4203D17B6883
:104E20009A68FB685A607B6800221A61FB681B68FD
:104E30005A1EFB681A60FB681B6818461437BD468B
:104E40005DF8047B704780B58EB004AFF860B96040
:104E50007A603B607B6B002B0AD14FF0500383F3E9
:104E60001188BFF36F8FBFF34F8F3B6200BFFEE728
:104E7000BB6B002B0AD14FF0500383F31188BFF3B3
:104E80006F8FBFF34F8FFB6100BFFEE754233B6181
:104E90003B69542B0AD04FF0500383F31188BFF3C2
:104EA0006F8FBFF34F8FBB6100BFFEE73B69BB6BEA
:104EB000002B1ED07B6B002B1BD0BB6B7B627B6AF5
:104EC0007A6B1A637B6A022283F8512000230393D2
:104ED0007B6A029307F1140301933B6B00933B68D9
:104EE0007A68B968F86800F050F8786A00F0D4F889
:104EF00001E000237B617B6918462837BD4680BDF1
:104F000080B58CB004AFF860B9603B601346FB809D
:104F1000FB889B00184600F0E7FE78617B69002B58
:104F20000ED0542000F0E0FEF861FB69002B03D0A6
:104F3000FB697A691A6305E0786900F0A1FF01E076
:104F40000023FB61FB69002B17D0FB69002283F86B
:104F50005120FA8800230393FB690293FB6A0193B3
:104F6000BB6A00933B68B968F86800F00EF8F8690E
:104F700000F092F80123BB6102E04FF0FF33BB6108
:104F8000BB6918462037BD4680BD80B588B000AFEC
:104F9000F860B9607A603B603B6B1A6B7B6803F129
:104FA0008043013B9B001344BB61BB6923F00703B3
:104FB000BB61BB6903F00703002B0AD04FF050031D
:104FC00083F31188BFF36F8FBFF34F8F7B6100BFF7
:104FD000FEE7BB68002B1FD00023FB6112E0BA681C
:104FE000FB69134419783A6BFB69134434330A465E
:104FF0001A70BA68FB6913441B78002B06D0FB6952
:105000000133FB61FB690F2BE9D900E000BF3B6B6B
:10501000002283F8432003E03B6B002283F8342016
:10502000BB6A062B01D90623BB623B6BBA6ADA6204
:105030003B6BBA6A5A643B6B00229A643B6B043345
:105040001846FFF76CFE3B6B18331846FFF767FEF8
:105050003B6B3A6B1A61BB6AC3F107023B6B9A6107
:105060003B6B3A6B5A623B6B0022DA643B6B00226B
:1050700083F850203A68F968B86900F023FC0246CA
:105080003B6B1A60FB6A002B02D0FB6A3A6B1A601A
:1050900000BF2037BD4680BD80B582B000AF7860CC
:1050A00000F040FD2A4B1B680133294A1360294B4D
:1050B0001B68002B09D1274A7B681360244B1B68AF
:1050C000012B10D100F0BCFA0DE0234B1B68002B24
:1050D00009D1204B1B68DA6A7B68DB6A9A4202D8E6
:1050E0001C4A7B6813601D4B1B6801331B4A13600D
:1050F0007B68DB6A01229A40194B1B681343184AEC
:1051000013607B68DA6A13469B0013449B00154AC0
:105110001A447B68043319461046FFF70DFE00F071
:1051200031FD0D4B1B68002B0ED00A4B1B68DA6A51
:105130007B68DB6A9A4207D20B4B4FF080521A60B1
:10514000BFF34F8FBFF36F8F00BF0837BD4680BDE1
:1051500078090020780800208409002094090020A4
:10516000800900207C08002004ED00E080B584B0B8
:1051700000AF78600023FB607B68002B17D0134BD7
:105180001B68002B0AD04FF0500383F31188BFF344
:105190006F8FBFF34F8FBB6000BFFEE700F07AF860
:1051A0000021786800F028FB00F082F8F860FB68C6
:1051B000002B07D1064B4FF080521A60BFF34F8F80
:1051C000BFF36F8F00BF1037BD4680BDA009002020
:1051D00004ED00E080B58AB004AF0023BB6000237B
:1051E0007B603A46391D07F108031846FBF7C2F900
:1051F00039687B68BA680292019300230093002308
:105200000A461E491E48FFF71EFE03461D4A13604C
:105210001C4B1B68002B02D001237B6101E00023A3
:105220007B617B69012B16D14FF0500383F311880A
:10523000BFF36F8FBFF34F8F3B6100BF124B4FF037
:10524000FF321A60114B01221A60114B00221A60C2
:1052500000F0C6FB0EE07B69B3F1FF3F0AD14FF0CF
:10526000500383F31188BFF36F8FBFF34F8FFB6041
:1052700000BFFEE700BF1837BD4680BD346B000895
:10528000115600089C09002098090020840900207C
:105290007C09002080B400AF044B1B680133034A33
:1052A000136000BFBD465DF8047B7047A009002075
:1052B00080B584B000AF0023FB600023BB60414B8E
:1052C0001B68002B0AD14FF0500383F31188BFF302
:1052D0006F8FBFF34F8F3B6000BFFEE700F022FCF3
:1052E000384B1B68013B374A1360364B1B68002B59
:1052F00061D1354B1B68002B5DD02EE0334BDB6852
:10530000DB68FB60FB6818331846FFF772FDFB682B
:1053100004331846FFF76DFDFB68DB6A01229A40F3
:105320002B4B1B6813432A4A1360FB68DA6A134647
:105330009B0013449B00274A1A44FB680433194618
:105340001046FFF7F9FCFB68DA6A234B1B68DB6A3F
:105350009A4202D3214B01221A601C4B1B68002B7E
:10536000CCD1FB68002B01D000F008FA1C4B1B6865
:105370007B607B68002B10D000F036F80346002BD2
:1053800002D0164B01221A607B68013B7B607B6870
:10539000002BF1D1124B00221A60104B1B68002B1E
:1053A00009D00123BB600F4B4FF080521A60BFF34E
:1053B0004F8FBFF36F8F00F0E5FBBB6818461037C7
:1053C000BD4680BDA00900207809002038090020D2
:1053D000800900207C080020780800208C0900202B
:1053E0008809002004ED00E080B586B000AF0023FE
:1053F0007B614E4B1B68002B40F08E804C4B1B6832
:1054000001333B614A4A3B6913603B69002B20D161
:10541000484B1B681B68002B0AD04FF0500383F3E6
:105420001188BFF36F8FBFF34F8F3B6000BFFEE764
:10543000404B1B68FB60404B1B683E4A13603E4A72
:10544000FB6813603D4B1B6801333C4A136000F05E
:1054500095F93B4B1B683A699A4248D3354B1B6818
:105460001B68002B04D1364B4FF0FF321A603EE030
:10547000304B1B68DB68DB68BB60BB685B687B60CC
:105480003A697B689A4203D22D4A7B6813602EE00A
:10549000BB6804331846FFF7ACFCBB689B6A002B63
:1054A00004D0BB6818331846FFF7A3FCBB68DB6A5F
:1054B00001229A40234B1B681343224A1360BB68A6
:1054C000DA6A13469B0013449B001F4A1A44BB68C8
:1054D000043319461046FFF72FFCBB68DA6A1B4BF2
:1054E0001B68DB6A9A42B9D301237B61B6E7174B8D
:1054F0001B68DA6A144913469B0013449B000B4453
:105500001B68012B01D901237B61114B1B68002B08
:1055100007D001237B6104E00E4B1B6801330D4A69
:1055200013607B6918461837BD4680BDA00900206E
:105530007C09002030090020340900209009002057
:1055400098090020800900207C08002078080020AD
:105550008C0900208809002080B487B000AF274B59
:105560001B68002B03D0264B01221A603FE0244B1E
:1055700000221A60234B1B68FB60FB68B3FA83F3BD
:10558000FB72FB7AC3F11F037B611F497A691346E3
:105590009B0013449B000B441B68002B0AD14FF067
:1055A000500383F31188BFF36F8FBFF34F8F7B607E
:1055B00000BFFEE77A6913469B0013449B00124A22
:1055C00013443B613B695B685A683B695A603B69BD
:1055D0005A683B6908339A4204D13B695B685A6850
:1055E0003B695A603B695B68DB68084A136000BF2F
:1055F0001C37BD465DF8047B704700BFA009002042
:105600008C090020800900207C08002078080020F8
:1056100080B582B000AF786000F052F8064B1B688E
:10562000012BF9D9054B4FF080521A60BFF34F8F11
:10563000BFF36F8FF0E700BF7C08002004ED00E0AF
:1056400080B582B000AF00237B600CE07A6813461F
:105650009B0013449B00124A13441846FFF73FFB7C
:105660007B6801337B607B68062BEFD90D48FFF721
:1056700036FB0D48FFF733FB0C48FFF730FB0C48B7
:10568000FFF72DFB0B48FFF72AFB0B4B054A1A606F
:105690000A4B054A1A6000BF0837BD4680BD00BFEF
:1056A0007C080020080900201C090020380900207F
:1056B0004C09002064090020300900203409002032
:1056C00080B582B000AF19E000F02CFA104BDB6817
:1056D000DB687B607B6804331846FFF78AFB0D4B61
:1056E0001B68013B0B4A13600B4B1B68013B0A4ACA
:1056F000136000F047FA786800F010F8064B1B685A
:10570000002BE1D100BF00BF0837BD4680BD00BF00
:105710004C090020780900206009002080B584B081
:1057200000AF78607B6893F85130002B08D17B681C
:105730001B6B184600F0A4FB786800F0A1FB18E092
:105740007B6893F85130012B03D1786800F098FB07
:105750000FE07B6893F85130022B0AD04FF05003D2
:1057600083F31188BFF36F8FBFF34F8FFB6000BFD0
:10577000FEE700BF1037BD4680BD000080B483B097
:1057800000AF0C4B1B681B68002B04D10A4B4FF079
:10579000FF321A6008E0074B1B68DB68DB687B6040
:1057A0007B685B68044A136000BF0C37BD465DF838
:1057B000047B7047300900209809002080B483B032
:1057C00000AF0B4B1B68002B02D101237B6008E06C
:1057D000084B1B68002B02D102237B6001E00023F1
:1057E0007B607B6818460C37BD465DF8047B7047CC
:1057F00084090020A009002080B584B000AF786043
:105800003960294B1B68FB60284B1B680433184622
:10581000FFF7EFFA0346002B0BD1244B1B68DB6A22
:10582000012202FA03F3DA43214B1B681340204A9A
:1058300013607B68B3F1FF3F0AD13B68002B07D0B0
:105840001A4B1B68043319461A48FFF775FA26E00D
:10585000FA687B681344BB60144B1B68BA685A60D3
:10586000BA68FB689A4209D2134B1A680F4B1B683F
:10587000043319461046FFF783FA10E00F4B1A68FD
:105880000A4B1B68043319461046FFF779FA0C4B94
:105890001B68BA689A4202D2094ABB68136000BF0B
:1058A0001037BD4680BD00BF7C090020780800206D
:1058B00080090020640900203409002030090020FC
:1058C0009809002080B485B000AFF860B9607A60B4
:1058D000FB68043BFB60FB684FF080721A60FB685A
:1058E000043BFB60BB6823F00102FB681A60FB68A5
:1058F000043BFB600C4AFB681A60FB68143BFB60CE
:105900007A68FB681A60FB68043BFB60FB686FF019
:1059100002021A60FB68203BFB60FB6818461437E4
:10592000BD465DF8047B70472D59000880B485B0F2
:1059300000AF00237B60124B1B68B3F1FF3F0AD01E
:105940004FF0500383F31188BFF36F8FBFF34F8F76
:10595000FB6000BFFEE74FF0500383F31188BFF3F5
:105960006F8FBFF34F8FBB6000BF00BF7B68002B02
:10597000FCD000BF00BF1437BD465DF8047B704704
:105980000C000020000000000000000000000000EB
:10599000074B19680868B0E8F04F80F30988BFF337
:1059A0006F8F4FF0000080F311887047AFF30080D5
:1059B0007808002000BF00BF08480068006880F336
:1059C00008884FF0000080F3148862B661B6BFF318
:1059D0004F8FBFF36F8F00DF00BF00BF08ED00E007
:1059E00080B586B000AF464B1B68464A93420AD149
:1059F0004FF0500383F31188BFF36F8FBFF34F8FC6
:105A00003B6100BFFEE73E4B1B683F4A93420AD111
:105A10004FF0500383F31188BFF36F8FBFF34F8FA5
:105A2000FB6000BFFEE7394B7B617B691B78DBB213
:105A30007B607B69FF221A707B691B78DBB2FB708D
:105A4000FB78DBB203F05003DAB2314B1A70314B02
:105A500007221A6009E02F4B1B68013B2D4A136097
:105A6000FB78DBB25B00DBB2FB70FB78DBB203F0F0
:105A70008003802BEFD0274B1B68C3F10703042B57
:105A80000AD04FF0500383F31188BFF36F8FBFF339
:105A90004F8FBB6000BFFEE71E4B1B681B021D4AF9
:105AA00013601C4B1B6803F4E0631A4A13607B68A5
:105AB000DAB27B691A70184B1B68174A43F47003FB
:105AC0001360154B1B68144A43F07043136000F0D9
:105AD000DDF8124B00221A6000F0FCF8104B1B6836
